:020000040800F2
:1000000000000220190104085106020857060208E0
:100010005D06020863060208690602080000000087
:100020000000000000000000000000002190020815
:100030006F0602080000000061920208AD8302080A
:1000400069010408690104086901040869010408D8
:1000500069010408690104086901040869010408C8
:1000600069010408690104086901040869010408B8
:1000700069010408690104086901040869010408A8
:100080006901040869010408690104086901040898
:100090006901040869010408690104086901040888
:1000A000690104087D060208690104086901040861
:1000B0006901040869010408690104086901040868
:1000C0006901040869010408690104086901040858
:1000D0006901040869010408690104086901040848
:1000E00069010408690104080000000069010408AE
:1000F0006901040869010408690104086901040828
:100100006901040869010408690104086901040817
:100110006901040869010408690104086901040807
:1001200069010408690104086901040869010408F7
:1001300069010408910602086901040869010408BC
:1001400000000000000000000000000000000000AF
:1001500069010408690104086901040869010408C7
:1001600069010408690104086901040869010408B7
:10017000690104086901040869010408000000001D
:100180006901040869010408690104086901040897
:100190006901040869010408690104086901040887
:1001A0006901040869010408690104086901040877
:1001B0006901040869010408690104086901040867
:1001C0006901040869010408690104086901040857
:1001D0006901040869010408690104086901040847
:1001E0006901040869010408690104086901040837
:1001F0006901040869010408690104086901040827
:100200006901040869010408690104086901040816
:100210006901040869010408690104086901040806
:10022000690104086901040869010408000000006C
:10023000690104086901040800000000690104085C
:1002400069010408690104086901040869010408D6
:1002500069010408690104086901040869010408C6
:1002600069010408690104086901040869010408B6
:10027000690104086901040869010408000000001C
:10028000690104086901040869010408000000000C
:080290000000000069010408F0
:1002A00010B5054C237833B9044B13B10448AFF3B0
:1002B00000800123237010BD7008002000000000A2
:1002C000AC42050808B5034B1BB103490348AFF323
:1002D000008008BD0000000074080020AC42050842
:1002E00080B483B000AF7860002318460C37BD4659
:1002F0005DF8047B704780B500AF00F013F900BFD4
:1003000080BD80B500AF00F021F900BF80BD80B591
:100310008CB000AF786039607B68B3F5803F01D363
:10032000032339E07B68002B02D11D4B1B687B60E7
:100330001C4A07F12C031268114619800233120C73
:100340001A70194A07F11C0307CA03C31A80023343
:10035000120C1A7007F1270300221A601A7107F1B4
:1003600014037A68114918464DF070F807F1140229
:1003700007F11C03114618464DF0D1F807F12C0384
:10038000FB6007F11C033B6107F10C033A68194657
:10039000022000F00DF8034618463037BD4680BDF8
:1003A00004000020948505089885050890850508B7
:1003B00080B586B000AFF860B9607A603FF008FFA2
:1003C000034683F00103DBB2002B01D004232CE0B1
:1003D0007B68002B01D1032327E07B681B68002B7F
:1003E00001D0012321E000F089F8034683F00103E6
:1003F000DBB2002B01D0022317E0B968F86800F0E7
:10040000DBF803467B617B691B78002B0CD03A211B
:1004100078694DF093F80346002B05D07968786928
:1004200000F045F8002300E0032318461837BD46C6
:1004300080BD80B584B000AF78607B68FB60FB68EE
:10044000002B04D0FB688833184600F027FC00BF5F
:100450001037BD4680BD80B584B000AF786039608C
:100460003FF0B6FE034683F00103DBB2002B1AD146
:100470003B68FB60FB68002B16D0FB681B681C33D5
:100480001B680621F8689847FB688833184600F017
:1004900005FCFB68002B07D0FB681B6804331B6856
:1004A000F868984700E000BF1037BD4680BD90B5A2
:1004B00085B000AF786039604FF4A8703FF06CFEF3
:1004C00003461C46204600F0C1F8FC607968F868D5
:1004D00000F095F9FB681B6830331B68F868984793
:1004E0003B68FA681A6006E04FF4A87120463FF0B6
:1004F0005FFE49F071FD1437BD4690BD80B483B0F6
:1005000000AF01233B603B467B607B681B78012B7F
:1005100001D0002300E0012318460C37BD465DF8EA
:10052000047B704780B500AF074B1B7883F0010355
:10053000DBB2002B04D000F093FD034B01221A70B4
:100540000123184680BD00BF8C08002080B400AF96
:10055000054B1B78002B02D0034B00221A7000BF02
:10056000BD465DF8047B70478C08002080B500AF65
:1005700009484CF079FC09484CF076FC08490948D8
:100580004CF0B2FB084909484CF0AEFB0849094859
:100590004CF0AAFB00BF80BDD4850508EC8505089A
:1005A000F8850508008605082086050834860508B4
:1005B000788605088486050880B485B000AF786029
:1005C00039601F4BFB607B68012B32DD0123BB6070
:1005D0007B68BA689A422CD2BB689B003A68134485
:1005E0001B681B782D2B1ED1BB689B003A681344F7
:1005F0001B6801331B78632B02D0662B08D010E0F8
:10060000BB6801339B003A6813441B68FB600CE035
:10061000BB6801339B003A6813441B68094A1360A6
:1006200003E0094B06E0084B04E0BB680233BB6003
:10063000CEE7FB6818461437BD465DF8047B70476B
:10064000CC860508B4080020DC86050880B584B097
:1006500002AF786078687B6803F59E727B6803F56B
:10066000A073009313464FF0FF3229493FF0E2FD9B
:10067000284A7B681A60284A7B689A637B6803F182
:100680008800264B1B687A68194600F00DF97B68D4
:1006900003F58873184608F0BBFB78683FF043FE0B
:1006A0000246136818331B681D49104698477B683B
:1006B00003F5887379680022184608F039FC7B68D6
:1006C00003F588707B6803F18801164B1B681A4696
:1006D00006F020FD0821786800F072F87B6812E0CF
:1006E0007B6803F58873184608F0A6FBFFE77B6874
:1006F0008833184600F0A4FAFFE77B6818463FF0FD
:10070000C3FD49F069FC18460837BD4680BD00BFEF
:1007100070870508C887050804880508A88C05089F
:10072000B0870508B08C050880B582B000AF78604E
:100730000C4A7B681A600C4A7B689A637B6803F5F5
:100740008873184608F078FB7B688833184600F0F9
:1007500077FA7B6818463FF097FD7B6818460837A4
:10076000BD4680BDC887050804880508A0F138008B
:10077000DAE780B582B000AF78607868FFF7D4FF21
:100780004FF4A87178683FF013FD7B68184608376E
:10079000BD4680BDA0F13800EBE780B582B000AF68
:1007A00078607B6818463FF0AEFD7B688833022195
:1007B000184608F0E0FE002318460837BD4680BD05
:1007C00080B584B000AF78600B46FB707B68FA7828
:1007D0001146184606F0B6FE0346FB73FB7B002B62
:1007E00008D1FB78062B05D17B6888330621184693
:1007F00008F0C1FEFB7B18461037BD4680BD80B5B2
:1008000082B000AF7860396078683FF08CFD0246B6
:10081000136818331B6839681046984700BF0837BB
:10082000BD4680BD80B483B000AF786039607B681E
:10083000012B0CD13B684FF6FF72934207D1074B57
:100840001B68074A1360074B1B68074A136000BF09
:100850000C37BD465DF8047B704700BFB08C0508BF
:1008600090080020348D05089408002080B500AF62
:100870004FF6FF710120FFF7D5FF80BD80B400AFB8
:1008800000231846BD465DF8047B704780B483B0F2
:1008900000AF7860034B1B6818460C37BD465DF807
:1008A000047B7047E48C050890B5D1B002AF07F126
:1008B0000C03186007F1080319603B1D1A6007F16B
:1008C0000C031C6807F10C031B6803F1740207F1A9
:1008D0000C031B6803F1780007F10803391D019030
:1008E00000921B68C24A0968204608F03BFBC14AD7
:1008F00007F10C031B681A60BF4A07F10C031B6861
:100900009A6307F10C031B6803F13804BB4B1868AA
:10091000BB4B196807F10C031B681A460AF006FE68
:1009200003461946204607F0F7FE07F10C031B6843
:1009300003F13804B34B1868B34B196807F10C0383
:100940001B681A460AF0F2FD03461946204607F0D6
:10095000E3FE07F10C031B6803F13804AB4B186886
:10096000AB4B196807F10C031B681A460AF0DEFD51
:1009700003461946204607F0CFFE07F1100318463C
:100980003FF09EFD07F1100308339C4918463FF0E5
:10099000EFFD07F1100308339E4918463FF0E8FDCC
:1009A00007F110038433974918463FF0E1FD07F142
:1009B00010038433984918463FF0DAFD07F10C0321
:1009C0001B6807F110021146184608F065FE07F192
:1009D0001003083318463FF0EDFD07F1100308330C
:1009E000864918463FF0C4FD07F1100308338B49D0
:1009F00018463FF0BDFD07F11003843318463FF061
:100A0000D9FD07F1100384337E4918463FF0B0FD4D
:100A100007F110038433804918463FF0A9FD07F120
:100A20000C031B6807F110021146184608F034FE4B
:100A300007F11003083318463FF0BCFD07F110031F
:100A400008336E4918463FF093FD07F11003083351
:100A5000734918463FF08CFD07F1100384331846A4
:100A60003FF0A8FD07F110038433664918463FF0B4
:100A70007FFD07F1100384336A4918463FF078FD83
:100A800007F10C031B6807F110021146184608F025
:100A900003FE07F11003083318463FF08BFD07F102
:100AA00010030833574918463FF062FD07F1100361
:100AB00008335D4918463FF05BFD07F110038433AE
:100AC00018463FF077FD07F1100384334F4918466D
:100AD0003FF04EFD07F110038433544918463FF0B0
:100AE00047FD07F10C031B6807F110021146184679
:100AF00008F0D2FD07F11003083318463FF05AFD05
:100B000007F1100308333F4918463FF031FD07F164
:100B100010030833464918463FF02AFD07F1100339
:100B2000843318463FF046FD07F1100384333749FC
:100B300018463FF01DFD07F1100384333D49184668
:100B40003FF016FD07F10C031B6807F11002114678
:100B5000184608F0A1FD07F11003083318463FF0CE
:100B600029FD07F110030833334918463FF000FD13
:100B700007F11003843318463FF01CFD07F1100302
:100B80008433224918463FF0F3FC07F11003843305
:100B90002A4918463FF0ECFC07F10C031B6807F1EB
:100BA00010021146184608F077FD07F10C031B6888
:100BB0000821184608F0DFFC07F1100318463FF043
:100BC0009EFC07F10C031B680DE007F110031846AB
:100BD0003FF095FCFFE707F10C031B68184608F08F
:100BE0006FFA49F0F9F9184607F59E77BD4690BDB2
:100BF000B88805085889050890890508FC8C0508FF
:100C0000288C0508AC8C0508408C0508A88C0508C4
:100C1000B88B0508988B0508F48C0508388D0508F5
:100C2000048D0508D48C0508E48B0508848C050820
:100C3000C08C0508C88C0508B08C05087C8C05089C
:100C400080B582B000AF7860074A7B681A60074AB7
:100C50007B689A637B68184608F032FA7B6818460E
:100C60000837BD4680BD00BF588905089089050832
:100C7000A0F13800E4E780B582B000AF7860786812
:100C8000FFF7DEFF882178683FF092FA7B6818460C
:100C90000837BD4680BDA0F13800ECE780B582B0D2
:100CA00000AF78607B6818463FF0CCFB03461846DF
:100CB0003FF0FAFB00BF0837BD4680BD80B582B06B
:100CC00000AF786039607B68012B18D13B684FF624
:100CD000FF72934213D10C4B19680C4B0C4A0D4810
:100CE0000AF014FB0C4A0D490A4848F0E1FC0C4B91
:100CF0001B680C4A13600C4B1B680C4A136000BF46
:100D00000837BD4680BD00BFE48C0508B8880508DB
:100D100073040408980800200000002049B300086C
:100D2000B08C0508AC080020348D0508B008002000
:100D300080B500AF4FF6FF710120FFF7BFFF80BD08
:100D400080B582B000AF786039607B6800221A609D
:100D50007B683A685A60786800F017F87B68184634
:100D60000837BD4680BD80B582B000AF78607B6833
:100D70001B68002B04D07B681B6818464AF04EF8AD
:100D80007B6818460837BD4680BD90B58DB000AF72
:100D90007860002387F82F3007F1080318463FF0EA
:100DA0001DFB374B1B68002B08D0354B1A6807F129
:100DB0000803114618463FF0B9FC13E031484AF0E9
:100DC000F7FFB862BB6A002B06D007F10803B96AC7
:100DD00018463FF0ABFC05E007F108032A49184626
:100DE0003FF0A4FC07F11803284918463FF080FCA7
:100DF00007F1080207F11803114618463FF0A5FC59
:100E000003461C4607F1180318463FF0F9FA002C78
:100E100022D107F1080318463FF00EFC03461C4997
:100E200018464AF0A5FA02467B681A607B681B6880
:100E3000002B03D0012387F82F300DE015484AF02E
:100E4000B7FF0346002B14BF01230023DBB2002BA6
:100E500002D0022049F066FF97F82F4007F10803FF
:100E600018463FF0CDFA234606E007F1080318467E
:100E70003FF0C6FA49F0B0F818463437BD4690BD89
:100E8000B4080020D08A0508E08A0508B08A050861
:100E9000EC8A0508F08A0508B0B58AB000AF786022
:100EA000022387F827307B681B68002B56D001236C
:100EB0003B62002387F8273007F1080318463FF00C
:100EC0008DFA07F108031946786800F055F80346D3
:100ED000002B05D097F82730002B01D1012300E02B
:100EE0000023002B35D007F1080318463FF0A4FB80
:100EF00003463B2118464CF021FBF861FB69002BAF
:100F000003D1012387F82730DBE7FB6900221A7041
:100F1000FB690133FB617B685B681B681C687B684D
:100F20005D6807F1080318463FF086FB0346FA693F
:100F300019462846A047034683F00103DBB2002B85
:100F400003D0032387F82730BBE73B6A01333B62BA
:100F5000B7E707F1080318463FF052FA97F8273031
:100F600006E007F1080318463FF04AFA49F034F862
:100F700018462837BD46B0BD80B59CB000AF78603C
:100F800039606423FB663B6818463FF0A1FB7B6831
:100F90001A6807F10803642118464AF0A1F80346CD
:100FA000002B14BF01230023DBB2002B11D03B68C0
:100FB00007F108021146184602F070F9396878689E
:100FC00000F017F8034683F00103DBB2002B0BD0CF
:100FD000DDE73B6818463FF063FB0346002B14BF78
:100FE00001230023DBB200E0012318467037BD4621
:100FF00080BD90B583B000AF786039603B6818461B
:101000003FF034FB04463B6818463FF049FB03467B
:101010000B3B2344104918461DF09AFA0346002B57
:1010200012D03B6818463FF021FB04463B68184647
:101030003FF036FB0346033B2344084918461DF0A6
:1010400087FA0346002B01D1012300E00023184654
:101050000C37BD4690BD00BF108B05081C8B0508E2
:1010600080B500AF01F0C8FE02F096FD00F010F967
:1010700002F0CAFD02F058FD02F01EFD02F016FE5D
:1010800002F06CF804F070F800F03EFF00F004FF8E
:1010900003F02CFB03F070F800F0AEFD00F08CFEC6
:1010A00000F03AFD02F03AFE03F070FE03F022FC7D
:1010B00003F058FC00F068FD01F036F801F020FB69
:1010C00002F09CFE00F0D0FD00F006FE02F05EFE95
:1010D00000F03AFE00F0A8FE04F0CEFB0EF0EAFCB1
:1010E00010F09AF80CF030F80DF002F90CF0C0FC9A
:1010F0000DF046F90CF046FD0DF0E4F90CF0ECFDB6
:101100000DF084FA0DF00AFB0CF044FE0DF0AEFB7E
:101110000CF0E8FE0DF08EFC0CF096FF0DF02AFDB1
:101120000DF034F80DF084FD0EF0DEF90EF084F8C9
:101130000CF006F90CF070FA0EF036FA0EF09EFB89
:101140000EF0C4FA0EF0D8F810F016F90DF0FEFD0E
:101150000DF03CFF10F048FA10F05CF910F0A8F91F
:1011600010F0BEFA10F0F2F9FFF788FB00BF80BD67
:1011700080B582B000AF7860396003220021012081
:1011800028F0F3FB02467B681A607B681846083734
:10119000BD4680BD80B582B000AF78607B681B68BB
:1011A000184629F00EFA7B6818460837BD4680BD00
:1011B00080B582B000AF78607B6818680023002299
:1011C000002128F049FD00BF0837BD4680BD80B52D
:1011D00082B000AF78607B681B68002B06D07B680C
:1011E0001B684FF0FF31184629F02CF800BF083774
:1011F000BD4680BD90B585B000AFF860C7E900235B
:10120000FB681B68002B1DD0FB681C68D7E9000138
:101210000F4A4FF000031DF0C3FC02460B464FF48B
:101220007A7303FB02F30B4AA2FB03239B091946C3
:10123000204629F007F80346002B14BF01230023A2
:10124000DBB200E0002318461437BD4690BD00BF56
:1012500040420F00D34D621080B582B000AF78607D
:101260007B681B68002B0CD07B681B68002118462C
:1012700028F0E8FF0346002B14BF01230023DBB254
:1012800000E0002318460837BD4680BD000000007E
:1012900080B400AF00231846BD465DF8047B70475C
:1012A00090B58FB000AFF860B9607A6000237B63BF
:1012B0004FF000034FF00004C7E90A344FF0000379
:1012C0004FF00004C7E908344FF000034FF000046A
:1012D000C7E906340123FB75FB681B6810331B68E4
:1012E000F86898470346023B0B2B00F2998001A255
:1012F00052F823F0251300086D130008B5130008F9
:10130000F1130008471300088F130008D1130008D9
:1013100007140008471300088F130008D1130008B2
:1013200007140008FB6818463FF009FB03465BB250
:101330004FEAE374C7E906344FF064034FF000044A
:10134000C7E90A3474E0FB6818463FF0D3FA034655
:10135000DBB24FF00004C7E908344FF064034FF0EC
:101360000004C7E90A340023FB7561E0FB681846F6
:101370003FF0D8FA03461BB24FEAE374C7E90634DC
:1013800042F210734FF00004C7E90A3450E0FB68E2
:1013900018463FF0A3FA03469BB24FF00004C7E99A
:1013A000083442F210734FF00004C7E90A340023F6
:1013B000FB753DE0FB6818463FF0A8FA03464FEA8C
:1013C000E374C7E9063474A418CCC7E90A342FE0E3
:1013D000FB6818463FF076FA03464FF00004C7E971
:1013E00008346DA418CCC7E90A340023FB751FE04C
:1013F000FB6818463FF0BDFAC7E9060168A418CC9F
:10140000C7E90A3414E0FB6818463FF0A5FAC7E9BB
:10141000080165A418CCC7E90A340023FB7507E06E
:10142000FB687A68B968184601F0ADFD0346ACE088
:10143000FB7D002B1FD0D7E90634002B74F100038D
:1014400015DA7B687A6B9A4202DB4FF0FF339CE03F
:101450007B6BBA6813442D221A707B6B01337B635C
:10146000D7E906345B4264EB4404C7E90634D7E9A4
:101470000634C7E908340123BB75D7E90A23D7E945
:1014800008011DF08DFB03460C4623430FD1BB7DA5
:10149000002B0CD0D7E90A014FF00A024FF00003ED
:1014A0001DF07EFB03460C46C7E90A3440E00023EA
:1014B000BB757B687A6B9A4202DB4FF0FF3364E0C6
:1014C0007B6BBA68D418D7E90A23D7E908011DF065
:1014D00067FB02460B46D3B23033DBB223707B6B23
:1014E000BA6813441B78303B4FEAE374BA6A04FBD2
:1014F00002F1FA6A03FB02F20A44B96AA1FB03345F
:1015000022441446D7E90812CB1A62EB0404C7E957
:101510000834D7E90A014FF00A024FF000031DF02A
:101520003FFB03460C46C7E90A347B6B01337B6300
:10153000D7E90A34002C08BF022B00D39DE77B6853
:101540007A6B9A4202DB4FF0FF331EE07B6BBA6886
:10155000D418D7E90A23D7E908011DF021FB024678
:101560000B46D3B23033DBB223707B6B01337B632A
:101570007B687A6B9A4202DB4FF0FF3305E07B6BAE
:10158000BA68134400221A707B6B18463C37BD467C
:1015900090BD00BFAFF3008000CA9A3B000000007E
:1015A000000064A7B3B6E00D0000E8890423C78AF1
:1015B00090B595B000AF786039604FF0FF33FB64B1
:1015C0003B68BB643B68002B03D03B681B78002B57
:1015D00002D14FF0FF339BE17B681B6810331B681F
:1015E000786898470346002B0CBF01230023DBB229
:1015F000002B07D07B683968184601F050FC034681
:10160000FB6484E1232138684BF098FF78620A2359
:101610007B640123FB737B6A002B0CD03B681B7837
:1016200018463FF0D0F9034683F00103DBB2002BEC
:1016300001D0012300E00023002B14D07A6A39681E
:10164000786800F081F90346FB64FB6C002B02DA3A
:101650004FF0FF335CE1FB6C0133BA6C1344BB64A5
:101660004FF0FF33FB644FF000034FF00004C7E975
:101670000E344FF000034FF00004C7E90C344FF074
:1016800000034FF00004C7E90A34BB6C01331B7838
:10169000232B13D1BB6C1B78322B02D0382B03D0F9
:1016A00005E002237B6405E008237B6402E04FF041
:1016B000FF332DE1BB6C0233BB6423E0BB6C013311
:1016C0001B78002B1ED0BB6C02331B78232B19D147
:1016D000BB6C1B78312B0FD1BB6C01331B78362BC5
:1016E00002D110237B640AE0BB6C01331B78302BE2
:1016F00005D04FF0FF330BE14FF0FF3308E1BB6C37
:101700000333BB647B681B6810331B687868984799
:1017100003467B847B8C023B0B2B77D801A252F8CB
:1017200023F000BF55170008771700089917000825
:10173000B3170008C5170008D9170008ED170008EF
:10174000FF170008C5170008D9170008ED17000893
:10175000FF170008704B93F900305BB24FEAE37457
:10176000C7E90C346D4B93F900305BB24FEAE37478
:10177000C7E90A344CE06A4BB3F900301BB24FEAB8
:10178000E374C7E90C34674BB3F900301BB24FEA7E
:10179000E374C7E90A343BE0634B1B684FEAE37428
:1017A000C7E90C34614B1B684FEAE374C7E90A349C
:1017B0002EE05F4B18CBC7E90C345E4B18CBC7E962
:1017C0000A3425E05C4B1B78DBB24FF00004C7E91C
:1017D0000E340023FB731BE0584B1B889BB24FF069
:1017E0000004C7E90E340023FB7311E0544B1B685F
:1017F0004FF00004C7E90E340023FB7308E0514B9F
:1018000018CBC7E90E340023FB7301E000237FE00F
:10181000FB7B002B0ED07B6C0A2B0BD00023FB73C1
:10182000D7E90C34DB1844EB0404013344F1000421
:10183000C7E90E3449F070FA024600231360FB7BBF
:10184000002B31D007F108037A6C1946B86C05F00B
:101850005DF803460C46C7E9063449F05DFA0346D5
:101860001B68222B11D0D7E90634D7E90C12994214
:1018700072EB040309DBD7E90612D7E90A3499426F
:1018800072EB040301DB012300E00023002B38D0BE
:101890007968D7E9062308463FF085F8BB681A4601
:1018A0003B68D31AFB642CE0BB6C1B782D2B28D033
:1018B00007F108037A6C1946B86C05F051F9034634
:1018C0000C46C7E9043449F027FA03461B68222B6B
:1018D00009D0D7E90434D7E90E12A24208BF9942D1
:1018E00001D3012300E00023002B0AD07968D7E957
:1018F000042308463EF03EFDBB681A463B68D31AF7
:10190000FB64FB6C002B02D14FF0FF33FB64FB6CDC
:1019100018465437BD4690BDF9930508F89305085D
:101920008693050884930508709405086C9405084F
:10193000489B0508409B0508CC9505085895050867
:10194000E4940508C09B050880B586B000AFF86038
:10195000B9607A604FF0FF337B617968B86801F055
:10196000E6FA03463B613B69B3F1FF3F0FD0FB68EA
:101970001B6810331B68F868984703461A460A4BE1
:1019800053F822203B699A4201D1012300E0002351
:10199000002B03D07A68BB68D31A7B617B69184639
:1019A0001837BD4680BD00BF0800002080B582B05A
:1019B00000AF786039607B68012B68D13B684FF6D7
:1019C000FF72934263D1344B1B68344A1946344842
:1019D00009F01CFD334A3449314847F069FE334B66
:1019E0001B68334A1360334B1B68314A5360324BD8
:1019F0001B682F4A9360314B1B682D4AD360304BD4
:101A00001B682B4A13612F4B1B68294A53612E4BCD
:101A10001B68274A93612D4B1B68254AD3612C4BC9
:101A20001B68234A13622B4B1B68214A53622A4BC3
:101A30001B681F4A9362294B1B681D4AD362284BBF
:101A40001B681B4A1363274B1B68194A5363264BB9
:101A50001B68174A9363254B1B68154AD363244BB5
:101A60001B68134A1364234B1B68114A5364224BAF
:101A70001B680F4A9364214B1B680D4AD364204BAB
:101A80001B680B4A13651F4B1B68094A536500BF4F
:101A90000837BD4680BD00BF588B0508EF09040814
:101AA000B80800200000002045B400084C8B050851
:101AB000080000207C8B0508F88C05088C8C050834
:101AC000BC8B05089C8C0508288D0508208D050811
:101AD0001C8D0508248D0508808B0508308D0508B0
:101AE000CC8B0508A48C0508B08B0508108D050863
:101AF000B48B05080C8D0508D88C0508A08C05084A
:101B0000088D0508348D050880B500AF4FF6FF71CC
:101B10000120FFF74BFF80BD80B400AF00231846C3
:101B2000BD465DF8047B704780B582B000AF786039
:101B300039607B68012B10D13B684FF6FF729342EE
:101B40000BD1084B1B68084A1946084809F05EFC8F
:101B5000074A0849054847F0ABFD00BF0837BD46B6
:101B600080BD00BF8C8C05088D0E0408C8080020BD
:101B70000000002045B4000880B500AF4FF6FF71AB
:101B80000120FFF7D1FF80BD80B400AF00231846CD
:101B9000BD465DF8047B704780B582B000AF7860C9
:101BA00039607B68012B10D13B684FF6FF7293427E
:101BB0000BD1084B1B68084A1946084809F026FC57
:101BC000074A0849054847F073FD00BF0837BD467E
:101BD00080BD00BFF88C050823100408D808002039
:101BE0000000002045B4000880B500AF4FF6FF713B
:101BF0000120FFF7D1FF80BD80B400AF002318465D
:101C0000BD465DF8047B704780B582B000AF786058
:101C100039607B68012B10D13B684FF6FF7293420D
:101C20000BD1084B1B68084A1946084809F0EEFB1F
:101C3000074A0849054847F03BFD00BF0837BD4645
:101C400080BD00BFBC8B0508B7110408E808002060
:101C50000000002045B4000880B500AF4FF6FF71CA
:101C60000120FFF7D1FF80BD80B400AF00231846EC
:101C7000BD465DF8047B704780B582B000AF7860E8
:101C800039607B68012B10D13B684FF6FF7293429D
:101C90000BD1084B1B68084A1946084809F0B6FBE7
:101CA000074A0849054847F003FD00BF0837BD460D
:101CB00080BD00BF1C8D05084B130408F8080020E8
:101CC0000000002045B4000880B500AF4FF6FF715A
:101CD0000120FFF7D1FF80BD80B400AF002318467C
:101CE000BD465DF8047B704780B582B000AF786078
:101CF00039607B68012B10D13B684FF6FF7293422D
:101D00000BD1084B1B68084A1946084809F07EFBAE
:101D1000074A0849054847F0CBFC00BF0837BD46D5
:101D200080BD00BF208D0508DF14040808090020CD
:101D30000000002045B4000880B500AF4FF6FF71E9
:101D40000120FFF7D1FF80BD80B400AF002318460B
:101D5000BD465DF8047B704780B582B000AF786007
:101D600039607B68012B10D13B684FF6FF729342BC
:101D70000BD1084B1B68084A1946084809F046FB76
:101D8000074A0849054847F093FC00BF0837BD469D
:101D900080BD00BF288D05087316040818090020AF
:101DA0000000002045B4000880B500AF4FF6FF7179
:101DB0000120FFF7D1FF80BD80B400AF002318469B
:101DC000BD465DF8047B704780B582B000AF786097
:101DD00039607B68012B10D13B684FF6FF7293424C
:101DE0000BD1084B1B68084A1946084809F00EFB3E
:101DF000074A0849054847F05BFC00BF0837BD4665
:101E000080BD00BFCC8B05082519040828090020D7
:101E10000000002045B4000880B500AF4FF6FF7108
:101E20000120FFF7D1FF80BD80B400AF002318462A
:101E3000BD465DF8047B704780B582B000AF786026
:101E400039607B68012B10D13B684FF6FF729342DB
:101E50000BD1084B1B68084A1946084809F0D6FA06
:101E6000074A0849054847F023FC00BF0837BD462C
:101E700080BD00BF308D0508BB1A0408380900205A
:101E80000000002045B4000880B500AF4FF6FF7198
:101E90000120FFF7D1FF80BD80B400AF00231846BA
:101EA000BD465DF8047B704780B582B000AF7860B6
:101EB00039607B68012B10D13B684FF6FF7293426B
:101EC0000BD1084B1B68084A1946084809F09EFACE
:101ED000074A0849054847F0EBFB00BF0837BD46F5
:101EE00080BD00BF808B05084F1C040848090020F6
:101EF0000000002045B4000880B500AF4FF6FF7128
:101F00000120FFF7D1FF80BD80B400AF0023184649
:101F1000BD465DF8047B704780B584B000AF786043
:101F200039600023FB6005224B4938684BF026FBE3
:101F30000346002B05D13B6805333B60FB68053346
:101F4000FB603B681B78312B08D17B680121184668
:101F50003FF047FFFB680133FB6077E03B681B788D
:101F6000302B08D17B68002118463FF03AFFFB6810
:101F70000133FB606AE03B681B78542B03D03B685D
:101F80001B78742B26D13B6801331B78522B04D06D
:101F90003B6801331B78722B1CD13B6802331B78E2
:101FA000552B04D03B6802331B78752B12D13B684C
:101FB00003331B78452B04D03B6803331B78652B18
:101FC00008D17B68012118463FF00BFFFB68043302
:101FD000FB603BE03B681B78462B03D03B681B78DB
:101FE000662B30D13B6801331B78412B04D03B6812
:101FF00001331B78612B26D13B6802331B784C2BB5
:1020000004D03B6802331B786C2B1CD13B68033334
:102010001B78532B04D03B6803331B78732B12D1EE
:102020003B6804331B78452B04D03B6804331B7892
:10203000652B08D17B68002118463FF0D2FEFB6873
:102040000533FB6002E04FF0FF33FB60FB6818468E
:102050001037BD4680BD00BF4096050880B586B0EC
:1020600000AFF860B9607A604FF0FF337B61134BCB
:102070005B781A467B689A421BD8FB6818463FF08B
:10208000C1FE0346002B07D07A680D49B8684BF0B3
:1020900087FA04237B6106E07A680A49B8684BF046
:1020A0007FFA05237B617B68013BBA6813440022F9
:1020B0001A707B6918461837BD4680BD849905089B
:1020C000489605085096050880B582B000AF786044
:1020D00039607B68012B10D13B684FF6FF72934249
:1020E0000BD1084B1B68084A1946084809F08EF9BD
:1020F000074A0849054847F0DBFA00BF0837BD46E4
:1021000080BD00BF7C8B05081D1E040858090020F7
:102110000000002045B4000880B500AF4FF6FF7105
:102120000120FFF7D1FF80BD80B400AF0023184627
:10213000BD465DF8047B704780B584B000AF786021
:1021400039602721386801F081F90346BB60BB681C
:10215000FB60BB68002B38DDBB68062B0DDD07225A
:102160001C4938684BF00AFA0346002B05D13B683E
:1021700007333B60FB68073BFB60BB684FF6FE72B2
:10218000934202D94FF6FE73FB603B681B78272B06
:1021900014D17B68FA6892B21146184601F0E9F84A
:1021A0007B6827223968184601F0BBFB0346DB0F2A
:1021B000DBB2002B09D04FF0FF3307E07B68FA68F1
:1021C00092B23968184601F027F8BB6818461037F4
:1021D000BD4680BD2497050880B58AB000AFF86081
:1021E000B9607A604FF0FF337B62BB68002B0BD085
:1021F000FB681B6820331B68F868984702467B68B9
:102200009A4201D8012300E00023002B4CD0BB6888
:1022100027221A70BB680133BB60FB6818463EF08A
:102220003FFA03467B8300233B627B68023B7B6073
:102230007B8B002B25DDFB6818463EF017FA786192
:102240000023FB617A8BFB699A421DD93A6A7B684D
:102250009A4202D34FF0FF3327E0BA683B6AD018A6
:102260007A69FB6913441B780222194601F025FAAA
:1022700003461A463B6A13443B62FB690133FB6128
:10228000E0E7BB6800221A703B6A7B627B6ABA682F
:10229000134427221A707B6A0133BA681344002260
:1022A0001A707B6A02337B627B6A18462837BD4608
:1022B00080BD80B586B000AF78607B6818463EF080
:1022C000D5F9F86000237B6100233B617B681846E9
:1022D0003EF0E6F903461A463B699A428CBF012359
:1022E0000023DBB2002B6DD0FA683B6913441B78E6
:1022F000184649F081FE0346002B0FD0FA683B696F
:1023000013441B78242B09D0FA683B6913441B78CB
:10231000272B03D07B6901337B614FE0FA683B696F
:1023200013441B78093B1E2B44D801A252F823F01A
:10233000AD230008AD230008B5230008AD23000835
:10234000AD230008B5230008B5230008AD2300081D
:10235000B5230008B5230008B5230008B5230008FD
:10236000B5230008B5230008B5230008B5230008ED
:10237000B5230008B5230008B5230008B5230008DD
:10238000B5230008B5230008B5230008B5230008CD
:10239000B5230008B5230008B5230008AD230008C5
:1023A000B5230008B5230008AD2300087B6902337C
:1023B0007B6103E07B6903337B6100BF3B690133D1
:1023C0003B6183E77B69033318461837BD4680BD00
:1023D00090B58FB000AFF860B9607A60FB707B6831
:1023E000002B0DDAFB78002B05D02721B86801F00F
:1023F0002DF8034605E0B8681CF0B4F8034600E089
:102400007B68BB62BB6A7B63BB6A002BC0F29580B2
:10241000BB6A002B07D1FB6800224A49184600F02E
:10242000FBFE00238AE0BB6A4FF6FE72934202DD98
:102430004FF6FE737B6307F118031A46796BB86891
:1024400004F086F803467B627B6A002B06DA3E497D
:10245000F8683EF06BF94FF0FF336FE0FB687A6A83
:1024600092B21146184600F084FFFB6818463EF011
:10247000CBF80346002B0CBF01230023DBB2002B5B
:1024800002D04FF0FF3359E0BB683B63FB6818464E
:102490003EF0D2F838623B6AFB623B6B1B78002B44
:1024A0002AD03A6BBB68D21A7B6B9A4224DAFA6A5A
:1024B0003B6AD21A7B6A9A421EDA07F11403194664
:1024C000386B03F0EFFD0346FB61FB693A6B134485
:1024D0003B637A691D4B1B689A420BD07B69FF2BCB
:1024E00001D93F237B61FB6A5A1CFA627A69D2B236
:1024F0001A70D2E700BFD0E7FB6A00221A70F868B2
:10250000FA6A3B6AD31A9BB219463FF08FFDFB78FB
:10251000002B12D0FC68FB6818463EF08DF803468D
:1025200027221946204601F0FCF903467B627B6AAC
:10253000002B02DA4FF0FF3300E0BB6A18463C374D
:10254000BD4690BD2C9705083097050860A2050888
:1025500080B58AB000AFF860B9607A60FB70FB7834
:10256000002B01D0022300E000237B62FB681846A9
:102570003EF07CF8F861FB691B78002B2ED0FB69DC
:102580001B781A460021002003F032FE03463B620E
:102590003B6A002B02DA4FF0FF337CE03B6A7A6A39
:1025A00013447B623B6A012B0ED1FB78002B0BD0CE
:1025B000FB691B7800221946002001F07EF80346D3
:1025C000022B01D1012300E00023002B02D07B6A03
:1025D00001337B62FB690133FB61CCE7BB68002BF5
:1025E00001D17B6A57E07B6A5A1C7B689A4202D908
:1025F0004FF0FF334FE0BB68BB61BA687B6A13449E
:102600007B61FB78002B04D0BB695A1CBA6127227E
:102610001A70FB6818463EF029F8F861FB691B78D0
:10262000002B2AD07A69BB69D31A1946FB691B783B
:102630001A46B86903F0DCFD03463B623B6A012B96
:102640000DD1FB78002B0AD0FB6919787A69BB6938
:10265000D31A1A46B86901F030F803463B623B6A68
:10266000002B02DA4FF0FF3315E03B6ABA691344DE
:10267000BB61FB690133FB61D0E7FB78002B04D021
:10268000BB695A1CBA6127221A70BB6900221A70F2
:10269000BA69BB68D31A18462837BD4680BD80B5D5
:1026A00082B000AF786039607B68012B10D13B6845
:1026B0004FF6FF7293420BD1074B1B68074A19462E
:1026C000074808F0A3FE074A0749054846F0F0FF0F
:1026D00000BF0837BD4680BD088D05085920040895
:1026E000680900200000002045B4000880B500AF54
:1026F0004FF6FF710120FFF7D2FF80BD0000000000
:1027000080B400AF00231846BD465DF8047B7047D7
:1027100090B591B000AF786039604FF0FF33FB6344
:102720004FF000034FF00004C7E90C343B681B78FE
:1027300018464CF0D3FE0346742B40F0428101232F
:10274000FB633B6801333B603B681B7818464CF0E9
:10275000C5FE0346692B17D13B6801331B78184629
:102760004CF0BCFE03466D2B0ED13B6802331B7848
:1027700018464CF0B3FE0346652B05D13B68033386
:102780003B60FB6B0333FB633B681B78232B40F000
:1027900015813B6801333B60FB6B0133FB634FF0FA
:1027A00001034FF00004C7E90A343B681B782B2B68
:1027B00003D03B681B782D2B0FD13B681B782D2B4A
:1027C00005D14FF0FF334FF0FF34C7E90A343B68BF
:1027D00001333B60FB6B0133FB634FF001034FF0B0
:1027E0000004C7E908340023FB7707F10C030A2231
:1027F0001946386803F03AFF03464FEAE374C7E925
:102800000434FB681B7818464CF068FE03465F3BB7
:10281000162B00F2858001A252F823F03D29000812
:102820002129000821290008212900082129000860
:1028300079280008212900082129000821290008F9
:1028400085280008212900082129000821290008DD
:102850002129000891280008BF2800082129000824
:10286000212900082129000821290008EB28000857
:1028700021290008F5280008634B4FF00004C7E940
:1028800008345CE0614B4FF00004C7E9083456E0BF
:10289000FB6801331B7818464CF020FE0346732B6F
:1028A00008D15B4B4FF00004C7E90834FB680133E3
:1028B000FB6044E050A418CCC7E908343FE0FB6853
:1028C00001331B7818464CF009FE0346732B09D1DF
:1028D0004FF001034FF00004C7E90834FB680133EF
:1028E000FB602CE04FF0FF3382E045A418CCC7E931
:1028F000083424E0FB6801331B7818464CF0EEFDE9
:102900000346732B09D14FF47A734FF00004C7E9E3
:102910000834FB680133FB6011E04FF0FF3367E0E0
:10292000FA683B689A4203D1D7E90C34234302D1B9
:102930004FF0FF335CE00123FB7700E000BFFB6852
:102940001A463B68D31AFA6B1344FB63FB683B607F
:10295000FB7F83F00103DBB2002B05D0FB6B01335F
:10296000FB633B6801333B607B693A6A02FB03F21D
:102970007B6A396901FB03F31A4439693B6AA1FB9D
:10298000033422441446BA6A04FB02F1FA6A03FBD8
:1029900002F20A44B96AA1FB033422441446D7E97F
:1029A0000C125B1844EB0204C7E90C34FB7F002BCC
:1029B00018D13B681B78002B14D016E74FF0FF337B
:1029C00016E007F10C030A221946386803F04EFEA0
:1029D00003464FEAE374C7E90C34FB681A463B68C8
:1029E000D31AFB63D7E90C2378683FF0CDFCFB6B6F
:1029F00018464437BD4690BD005847F80000000017
:102A000000CA9A3B0000000000004F9100A0B830BF
:102A100040420F00B0B58AB000AFF860B9607A608C
:102A20004FF0FF337B627B68042B40F2C280F86872
:102A300000F0E6F803460C4607F110011A4623465B
:102A400008463FF027FDBB68991C7B681A1F07F1F9
:102A500010031846FEF724FC03467B627B6AB3F141
:102A6000FF3F00F09D80BB6854221A70BB680133A1
:102A700023221A707B6A02337B62F86800F0D6F872
:102A800003460C4607F110011A46234608463FF05C
:102A90003DFD07F1100318463FF049FD4FF47A72EF
:102AA0004FF000031CF02CF81C46134607F11001F0
:102AB0001A46234608463FF029FD07F11003184641
:102AC0003FF035FD03460C462343002B14BF012382
:102AD0000023DBB2002B4FD07B6ABA6813442E224E
:102AE0001A707B6A01337B6207F1100318463FF0CE
:102AF0001EFD03460C46642B74F10003B4BF012392
:102B00000023DBB2002B1FD07B6ABA68134430224B
:102B10001A707B6A01337B6207F1100318463FF09D
:102B200006FD03460C460A2B74F10003B4BF0123D3
:102B30000023DBB2002B07D07B6ABA681344302233
:102B40001A707B6A01337B627B6ABA68D1187B6A30
:102B50007A68D21A07F110031846FEF7A1FB034664
:102B60003B623B6AB3F1FF3F02D13D6A002418E0AB
:102B70007A6A3B6A13447B627B6ABA6813446D22AB
:102B80001A707B6A0133BA68134473221A707B6A25
:102B90000233BA68134400221A707B6A02337B62E4
:102BA000012407F1100318463FF08EFC012C01D1DF
:102BB00000BF7D6A2B4606E007F1100318463FF080
:102BC00083FC47F009FA18462837BD46B0BD90B5DA
:102BD00083B000AF786078683FF0E7FB06A3D3E9E5
:102BE00000231BF08DFF03460C46184621460C3788
:102BF000BD4690BDAFF3008000CA9A3B00000000C4
:102C000090B583B000AF786078683FF0CEFB064A9D
:102C10004FF000031BF074FF03460C461846214694
:102C20000C37BD4690BD00BF40420F0090B583B049
:102C300000AF786078683FF0B8FB4FF47A724FF0DD
:102C400000031BF05DFF03460C46184621460C3777
:102C5000BD4690BD90B583B000AF786078683FF016
:102C6000A4FB03460C46184621460C37BD4690BDD2
:102C700090B585B000AFF860C7E900237B680B4AC8
:102C800002FB03F23B68002101FB03F31A443B689B
:102C90000649A3FB0134224414461A462346F86829
:102CA0003FF072FB00BF1437BD4690BD00CA9A3B8F
:102CB0002DE9F04F85B000AFF860C7E9002397E831
:102CC00006000B4614464FEA441B4BEAD36B4FEA0F
:102CD000431A53465C465B1A64EB02044FEA4429EC
:102CE00049EAD3594FEA432843464C465B1844EB24
:102CF0000204A60146EA93669D01ED1A66EB0406FE
:102D00006B1846EB02041A462346F8683FF03CFB7A
:102D100000BF1437BD46BDE8F08F2DE9F04F85B0F8
:102D200000AFF860C7E9002397E806000B46144699
:102D30004FEA441B4BEAD36B4FEA431A53465C46B7
:102D40005B1A64EB02044FEA840949EA93794FEA7B
:102D5000830843464C465B1844EB0204E60046EA0F
:102D60005376DD002B4634461A462346F8683FF07A
:102D70000BFB00BF1437BD46BDE8F08F80B584B0B3
:102D800000AFF860C7E90023D7E90023F8683FF0F7
:102D9000FBFA00BF1037BD4680BD80B582B000AFE2
:102DA000786039607B68012B10D13B684FF6FF7269
:102DB00093420BD1074B1B68074A1946074808F096
:102DC00025FB074A0749054846F072FC00BF083753
:102DD000BD4680BD0C8D05080B2204087809002033
:102DE0000000002045B4000880B500AF4FF6FF7129
:102DF0000120FFF7D2FF80BD80B400AF002318464A
:102E0000BD465DF8047B704780B584B000AF786044
:102E100039603B681B6810331B6838689847034665
:102E2000FB817B681B6810331B68786898470346F2
:102E3000BB81BA89FB899A4207D17B681B6808333A
:102E40001B6839687868984725E0BB89002B07D153
:102E50003B681B680C331B687968386898471AE030
:102E6000BA89FB89114618463FF0E2FB0346002B66
:102E700011D0FB89132B02D0FB89122B04D1796866
:102E8000386800F007F906E07B681B6808331B68A8
:102E900039687868984700BF1037BD4680BD80B557
:102EA00086B000AF786039604FF0FF337B617B689C
:102EB0001B6810331B68786898470346002B0CBFCB
:102EC00001230023DBB2002B2CD0232138684AF0E9
:102ED00035FB38613B69002B24D03969386800F034
:102EE00026F80346FB60FB68B3F1FF3F08D0796822
:102EF000F86808F0DBFB0346002B01D0012300E05B
:102F00000023002B0ED07B681B6818331B683968C0
:102F10007868984703467B617B69002B02DA786802
:102F20003FF030FB7B6918461837BD4680BD80B541
:102F300088B000AF786039604FF0FF33FB613A68CA
:102F40007B68D31ABB61BB690D2B17DCBA6907F12B
:102F50000803796818464AF023FB07F10802BB69A9
:102F6000134400221A7007F0F1FE024607F108032D
:102F7000194610463FF0F5FA0346FB61FB69184617
:102F80002037BD4680BD80B586B000AFF860B9601F
:102F90007A604FF0FF337B617B68082B0CD90823E4
:102FA0007B617B691A460749B86849F0F6FB7B6983
:102FB000BA68134400221A707B6918461837BD4658
:102FC00080BD00BFF898050880B485B000AFBA6036
:102FD0007B600346FB810B46BB817B6800221A7035
:102FE0007B681A78BB681A70FB89002B08DDFB89A7
:102FF000152B05DCBB89002B02DDBB89152B01DD00
:1030000000233DE0FB895A1EBB89013BD9101F48B4
:1030100013465B00134403440B441B781946BB89D9
:10302000013B03F00703802242FA03F30B40002B1D
:1030300014BF01230023DAB2BB681A70FB895A1E41
:10304000BB89013BD910124813465B00134403446B
:103050000B441B781946BB89013B03F00703802210
:1030600042FA03F30B40002B14BF01230023DAB212
:103070007B681A70BB681A787B681B781343DBB2D5
:1030800018461437BD465DF8047B7047049905085F
:103090004499050880B582B000AF786039607B68DC
:1030A0001B6810331B68786898470346122B02D0C0
:1030B000132B05D009E03968786801F082FD04E03F
:1030C0003968786801F069FF00BF00BF0837BD4666
:1030D00080BD80B582B000AF78607B681B6810331C
:1030E0001B687868984703461A46034B9B5C184652
:1030F0000837BD4680BD00BF8499050880B582B001
:1031000000AF786039607B68012B10D13B684FF6C7
:10311000FF7293420BD1084B1B68084A19460848B6
:1031200008F074F9074A0849054846F0C1FA00BF9B
:103130000837BD4680BD00BF4C8B050885250408B7
:10314000880900200000002045B4000880B500AFC9
:103150004FF6FF710120FFF7D1FF80BD80B400AFB3
:1031600000231846BD465DF8047B704780B582B0E9
:1031700000AF78600F4A7B681A607B6818463DF0A4
:1031800043FA0346002B14BF01230023DBB2002BBC
:1031900007D07B6818463DF037FA034618463CF0E6
:1031A000E4FF7B6818463DF0B1FC7B6818460837A1
:1031B000BD4680BD709A050880B582B000AF7860CA
:1031C0007868FFF7D3FF102178683CF0F1FF7B6847
:1031D00018460837BD4680BD80B584B000AF786022
:1031E00039603B68002B12D038681BF0BBF9F860DF
:1031F000FB684FF6FE72934202D94FF6FE73FB60F6
:10320000FB689BB21A463968786800F005F87B685D
:1032100018461037BD4680BD80B584B000AFF86059
:10322000B9601346FB80BB68002B33D0FB88002BB2
:1032300008D0F8683DF000FA0246BB689A4201D017
:10324000012300E00023002B0CD0FB881946F8680E
:1032500000F08FF8F8683DF0EFF9FB881A46B9687E
:1032600049F09BFAF8683DF0E7F90346002B14BFDC
:1032700001230023DBB2002B0CD0FB881946F86831
:103280003EF0D4FEF8683DF0D7F90246FB881344BF
:1032900000221A7000BF1037BD4680BD80B582B0D5
:1032A00000AF786039603B68002B09D038681BF0AC
:1032B00059F903469BB21A463968786800F004F859
:1032C00000BF0837BD4680BD80B586B000AFF8604E
:1032D000B9601346FB80BB68002B46D0F8683DF010
:1032E000DFF90346FB82FB88002B3ED0F8683FF0F5
:1032F00077FA03461A46FB8AD21AFB889A42B4BF71
:1033000001230023DBB2002B07D0FA8AFB88134489
:103310009BB21946F86800F02CF8F8683DF08CF97B
:103320000346002B14BF01230023DBB2002B1CD06B
:10333000F8683DF081F90246FB8A1344FA88B968BF
:10334000184649F02AFAFA8AFB8813449BB21946B8
:10335000F8683EF06BFEF8683DF06EF90146FA8AB7
:10336000FB8813440B4400221A7000BF1837BD4677
:1033700080BD80B586B000AF78600B467B807868F2
:103380003FF02EFA03461A467B8801339A42B4BFB7
:1033900001230023DBB2002B54D07B6818463DF09C
:1033A00033F90346002B0CBF012300237B7578689B
:1033B0003DF076F903467B8278683FF011FA0346C8
:1033C0001A4613465B0013445B10FB82FA8A7B8823
:1033D0009A4201DA7B88FB82FB8A053318463CF06F
:1033E000CFFE0346FB607B6818463DF00DF9B860E0
:1033F000BB68002B0CD078683FF0F2F90346053328
:103400001A46B968F86849F0C8F9B8683CF0ADFEEA
:103410007B68F96818463FF020F9FB8A19467868FE
:103420003FF011FA7B7D002B0CD07B8A194678681F
:103430003EF0FCFD78683DF0FFF802467B8A1344BD
:1034400000221A7000BF1837BD4680BD80B584B019
:1034500000AF78600B46FB707B681B78FA789A4265
:1034600004D078681BF07EF803463BE07B680133AC
:10347000FB60FB681B78FA789A4225D0FB681B78C2
:10348000002B21D0FB681B78242B18D1FB6801335B
:10349000FB60FB681B78002B15D0FB78222B0CBF40
:1034A00001230023D9B207F10A0207F10C031846E1
:1034B00000F01CF8034683F00103DBB2002BFB682D
:1034C0000133FB60D5E700BFFB681B78FA789A42AE
:1034D00005D1FB6801331A467B68D31A02E04FF02E
:1034E000FF3300BF18461037BD4680BD80B586B09B
:1034F00000AFF8600B467A60FB720123FB75FB6836
:103500001B681B78223B522B00F2C98001A252F8A3
:1035100023F000BF613600089F3600089736000888
:103520009F3600089F360008613600089F36000865
:103530009F3600089F3600089F3600089F36000817
:103540009F3600089F3600089F3600089F36000807
:103550009F3600089F3600089F3600089F360008F7
:103560009F3600089F3600089F3600089F360008E7
:103570009F3600089F3600089F3600089F360008D7
:103580009F3600089F3600089F3600089F360008C7
:103590009F3600089F3600089F3600089F360008B7
:1035A0009F3600089F3600089F3600089F360008A7
:1035B0009F3600089F3600089F3600086F360008C7
:1035C0009F360008773600089F3600087F360008CF
:1035D0009F360008873600089F3600088F3600089F
:1035E0009F3600089F3600089F3600089F36000867
:1035F0009F3600089F3600089F3600089F36000857
:103600009F3600089F3600089F3600089F36000846
:103610009F3600089F3600089F3600089F36000836
:103620009F3600089F3600089F3600089F36000826
:103630009F3600089F3600089F3600086F36000846
:103640009F360008773600089F3600087F3600084E
:103650009F360008873600089F3600088F3600081E
:10366000FB681B681B789AB27B681A8020E07B6835
:1036700010221A801CE07B680A221A8018E07B68FE
:103680000C221A8014E07B680D221A8010E07B68FF
:1036900009221A800CE07B6824221A8008E0FB7A59
:1036A0007A681946F86800F0A8F80346FB7500BF71
:1036B000FB7D18461837BD4680BD80B487B000AF8B
:1036C000F8600B467A60FB7201237B61FB7AFB7426
:1036D000FB7A093B1E2B71D801A252F823F000BFE0
:1036E000A537000881370008BD3700088D3700086E
:1036F00099370008BD370008BD3700087537000846
:10370000BD370008BD370008BD370008BD370008C9
:10371000BD370008BD370008BD370008BD370008B9
:10372000BD370008BD370008BD370008BD370008A9
:10373000BD370008BD370008BD370008BD37000899
:10374000BD370008B1370008BD3700085D370008F5
:10375000BD370008BD370008693700087B690133B1
:103760007B612423FB742AE07B6901337B6127237F
:10377000FB7424E07B6901337B616C23FB741EE0E6
:103780007B6901337B616E23FB7418E07B69013335
:103790007B617023FB7412E07B6901337B617223D0
:1037A000FB740CE07B6901337B617423FB7406E0DE
:1037B0007B6901337B612223FB7400E000BFFB685F
:1037C000002B01D17B6912E07A697B689A4202D9A9
:1037D0004FF0FF330BE07B69022B04D1FB685A1CCE
:1037E000FA6024221A70FB68FA7C1A707B6918460A
:1037F0001C37BD465DF8047B704790B587B000AFBD
:10380000F8600B467A60FB720023FB757B68002230
:103810001A80FB681B681B7818463EF02CFF034695
:10382000002B79D0FB681B681B7818463EF04CFFD4
:1038300003469BB21B019AB27B681A80FB681B6827
:1038400001331B7818463EF016FF0346002B63D069
:103850007B681B881CB2FB681B6801331B78184609
:103860003EF032FF03461BB223431BB29AB27B6881
:103870001A80FB7A002B42D07B681B881B029AB20D
:103880007B681A80FB681B6802331B7818463EF081
:10389000F2FE0346002B1CD07B681B881CB2FB6821
:1038A0001B6802331B7818463EF00EFF03461B01CF
:1038B0001BB223431BB29AB27B681A80FB681B6859
:1038C00003331B7818463EF0D6FE0346002B14D077
:1038D00001E0002321E07B681B881CB2FB681B68A9
:1038E00003331B7818463EF0EFFE03461BB223431A
:1038F0001BB29AB27B681A8001E000230DE0FB68DE
:103900001A68FB7A002B01D0032300E001231A443C
:10391000FB681A600123FB75FB7D18461C37BD460A
:1039200090BD80B58CB000AFF860B9601346FB71F4
:103930000023FB854FF0FF33BB62BB68BB61FB79A3
:10394000222B0CBF0123002387F82730BB691B788B
:10395000FA799A4202D1BB690133BB61F8683CF045
:103960006BFE3862BB691B78002B5ED0FB8D4FF677
:10397000FE72934259D0BB691B78242B3ED1BB69A0
:103980000133BB61BB691B78002B4DD007F11602D8
:1039900097F8271007F118031846FFF7A7FD03460D
:1039A00083F00103DBB2002B02D04FF0FF3350E075
:1039B00097F8273083F00103DBB2002B06D0FB8D94
:1039C0003A6A1344FA8AD2B21A7026E0FB8D3A6A38
:1039D0001344FA8A0321184602F00AFC0346FB61ED
:1039E000FB69002B02DA4FF0FF3332E0FB699AB239
:1039F000FB8D13449BB2013BFB850EE0BB691B783A
:103A0000FA799A4203D1BB690133BB610DE0FB8DAA
:103A10003A6A1344BA6912781A70BB690133BB6100
:103A2000FB8D0133FB859DE700BFF8683CF004FE89
:103A30000246FB8D134400221A70FB8D1946F8686C
:103A40003EF0F4FABB691A46BB68D31A9BB2BB625C
:103A5000BB6A18463037BD4680BD80B582B000AF26
:103A6000786039607B68012B10D13B684FF6FF729C
:103A700093420BD1074B1B68074A1946074807F0CA
:103A8000C5FC074A0749054845F012FE00BF083744
:103A9000BD4680BD6C8B0508FF26040898090020F0
:103AA0000000002045B4000880B500AF4FF6FF715C
:103AB0000120FFF7D2FF80BD80B400AF002318467D
:103AC000BD465DF8047B704780B582B000AF78607A
:103AD00039607B68012B10D13B684FF6FF7293422F
:103AE0000BD1084B1B68084A1946084807F08EFCA2
:103AF000074A0849054845F0DBFD00BF0837BD46C9
:103B000080BD00BF648B050873280408AC09002041
:103B10000000002045B4000880B500AF4FF6FF71EB
:103B20000120FFF7D1FF80BD80B400AF002318460D
:103B3000BD465DF8047B704780B582B000AF786009
:103B400039607B68012B10D13B684FF6FF729342BE
:103B50000BD1084B1B68084A1946084807F056FC69
:103B6000074A0849054845F0A3FD00BF0837BD4690
:103B700080BD00BF608B0508D3280408BC09002065
:103B80000000002045B4000880B500AF4FF6FF717B
:103B90000120FFF7D1FF80BD80B400AF002318469D
:103BA000BD465DF8047B704780B582B000AF786099
:103BB00039607B68012B10D13B684FF6FF7293424E
:103BC0000BD1084B1B68084A1946084807F01EFC31
:103BD000074A0849054845F06BFD00BF0837BD4658
:103BE00080BD00BF548B050833290408CC09002090
:103BF0000000002045B4000880B500AF4FF6FF710B
:103C00000120FFF7D1FF80BD80B400AF002318462C
:103C1000BD465DF8047B704780B584B000AFF860A6
:103C2000C7E90023FB6818463DF0A0F8064AFB6888
:103C30001A60D7E90023F8683EF0DBFEFB681846FF
:103C40001037BD4680BD00BF04FF050880B582B0B7
:103C500000AF786039607B68012B10D13B684FF66C
:103C6000FF7293420BD1084B1B68084A194608485B
:103C700007F0CCFB074A0849054845F019FD00BF8D
:103C80000837BD4680BD00BF5C8B0508932904083A
:103C9000DC0900200000002045B4000880B500AF1A
:103CA0004FF6FF710120FFF7D1FF80BD80B400AF58
:103CB00000231846BD465DF8047B704780B582B08E
:103CC00000AF786039607B68012B10D13B684FF6FC
:103CD000FF7293420BD1084B1B68084A19460848EB
:103CE00007F094FB074A0849054845F0E1FC00BF8E
:103CF0000837BD4680BD00BF688B0508132A04083D
:103D0000EC0900200000002045B4000880B500AF99
:103D10004FF6FF710120FFF7D1FF80BD80B400AFE7
:103D200000231846BD465DF8047B704780B582B01D
:103D300000AF786039607B68012B10D13B684FF68B
:103D4000FF7293420BD1084B1B68084A194608487A
:103D500007F05CFB074A0849054845F0A9FC00BF8D
:103D60000837BD4680BD00BF9C8C0508712B040838
:103D7000FC0900200000002045B4000880B500AF19
:103D80004FF6FF710120FFF7D1FF80BD80B400AF77
:103D900000231846BD465DF8047B704780B582B0AD
:103DA00000AF786039607B68012B10D13B684FF61B
:103DB000FF7293420BD1084B1B68084A194608480A
:103DC00007F024FB074A0849054845F071FC00BF8D
:103DD0000837BD4680BD00BF248D0508F52B0408BB
:103DE0000C0A00200000002045B4000880B500AF98
:103DF0004FF6FF710120FFF7D1FF80BD80B400AF07
:103E000000231846BD465DF8047B70472DE9F04F4E
:103E100091B000AF786039600023FB633B68BB6002
:103E200007F10C0324220021184648F0DBFCBB6894
:103E30001B7818464BF052FB0346742B34D1BB68F9
:103E400001331B7818464BF049FB03466F2B0CD10E
:103E5000BB6802331B7818464BF040FB0346642BCB
:103E600003D1BB680333BB6014E0BB680B22194667
:103E7000714849F083FB0346002B08D0BB680B2236
:103E800019466E4849F07AFB0346002B02D1BB6805
:103E90000B33BB60BB681B78232B02D04FF0FF3382
:103EA000C5E0BB680133BB60BB681B78002B7CD0CE
:103EB000BB6807F108010A22184602F0A3FC03467A
:103EC0007B61BB681B783A2B68D1BB680133BB6050
:103ED000BB6807F108010A22184602F093FC03466A
:103EE0003B61BB681B783A2B62D1BB680133BB6076
:103EF000BB6807F108010A22184602F083FC03465A
:103F0000FB60BB681B782E2B52D10023BB63BB68C0
:103F10000133BB60BB681B78303B092B01D8012300
:103F200000E00023002B14D0FA6B13469B001344CF
:103F30005B001C46BB681B7818463EF0B6FB034688
:103F40002344FB63BB680133BB60BB6B0133BB63C2
:103F5000E0E7BB6B022B0ED8BB6B7B637B6B022B4A
:103F600026D8FA6B13469B0013445B00FB637B6B04
:103F700001337B63F2E700233B63BB6BDA1E3B6BD1
:103F80009A4215D9FB6B2E4A82FB03129210DB1763
:103F9000D31AFB633B6B01333B63EEE7BB681B78D3
:103FA000002B05D04FF0FF3341E04FF0FF333EE0F0
:103FB00078687B694FF4616202FB03F13A6913464A
:103FC0001B019B1A9B00CA18FB68134419464FEA51
:103FD000E1720B4614464FEA441B4BEAD36B4FEA9F
:103FE000431A53465C465B1A64EB02044FEA8409A9
:103FF00049EA93794FEA830843464C465B1844EB01
:104000000204E60046EA5376DD002B4634461946A4
:104010002246FB6B4FEAE3745B1844EB02041A463A
:1040200023463EF0B2FEBB681A463B68D31A1846D8
:104030004437BD46BDE8F08F509C05085C9C0508E0
:1040400067666666F0B58FB004AFF860B9607A60F5
:10405000FB6818463CF080FCC7E90601D7E9060179
:104060004FF47A724FF000031AF09AFD03460C46A3
:104070007B617B69254A82FB03121A44D212DB174B
:10408000D61A7A69214B83FB02131344D912D31732
:10409000CB1A4FF4616101FB03F3D31A1C4A82FB74
:1040A00003121A445211DB17D51A7A69184B83FB95
:1040B000021313445911D317CC1A23461B011B1B9F
:1040C0009B00D41AD7E906014FF47A724FF000032F
:1040D0001AF066FD134602930194009533460D4A8B
:1040E0007968B8680DF0F6FC03467B627B6AB3F131
:1040F000FF3F03DB7B687A6A9A4202DB4FF0FF33B3
:104100007B627B6A18462C37BD46F0BDC5B3A291D1
:1041100089888888689C050880B582B000AF78607F
:1041200039607B68012B10D13B684FF6FF729342D8
:104130000BD1084B1B68084A1946084807F066F976
:10414000074A0849054845F0B3FA00BF0837BD469D
:1041500080BD00BF108D0508152E04081C0A002024
:104160000000002045B4000880B500AF4FF6FF7195
:104170000120FFF7D1FF80BD80B400AF00231846B7
:10418000BD465DF8047B704790B593B000AF786092
:1041900039604FF0FF337B643B683B633B6B1B78BC
:1041A00018464BF09BF90346642B2BD13B6B013334
:1041B0001B7818464BF092F90346742B03D13B6BE6
:1041C00002333B6314E03B6B0D2219467A4849F0F9
:1041D000D5F90346002B08D03B6B0D2219467748D2
:1041E00049F0CCF90346002B02D13B6B0D333B6306
:1041F0003B6B1B78232B02D04FF0FF33D8E03B6B97
:1042000001333B6300233B6407F10C0324220021AC
:10421000184648F0E7FA3B6B1B78002B00F0AE80A5
:104220003B6B07F130010A22184602F0EBFA034615
:10423000A3F26C733B623B6B1B782D2B40F09E808E
:104240003B6B01333B633B6B07F130010A2218469D
:1042500002F0D8FA0346013BFB613B6B1B782D2B28
:1042600040F08C803B6B01333B633B6B07F13001CB
:104270000A22184602F0C6FA0346BB613B6B1B7864
:104280002D2B7BD13B6B01333B633B6B07F1300143
:104290000A22184602F0B6FA03467B613B6B1B7894
:1042A0003A2B6BD13B6B01333B633B6B07F1300126
:1042B0000A22184602F0A6FA03463B613B6B1B78C4
:1042C0003A2B5BD13B6B01333B633B6B07F1300116
:1042D0000A22184602F096FA0346FB603B6B1B78F5
:1042E0002E2B46D10023FB633B6B01333B633B6BBF
:1042F0001B78303B092B01D8012300E00023002B61
:1043000014D03A6C13469B0013445B001C463B6B75
:104310001B7818463EF0C9F9034623443B643B6BC7
:1043200001333B63FB6B0133FB63E0E7FB6B022B69
:104330000ED8FB6BBB63BB6B022B1AD83A6C1346CF
:104340009B0013445B003B64BB6B0133BB63F2E730
:1043500000237B63FB6BDA1E7B6B9A4209D93B6CB3
:10436000174AA2FB0323DB083B647B6B01337B63AF
:10437000F0E73B6B1A463B68D31A7B647B6CB3F166
:10438000FF3F0ED07B6807F10C013A6C184600F035
:104390002FF9034683F00103DBB2002B01D0012388
:1043A00000E00023002B02D04FF0FF337B647B6CD6
:1043B00018464C37BD4690BD689D0508789D050898
:1043C000CDCCCCCC2DE9F0418EB006AF786139610F
:1043D000FA604FF0FF33FB617B69184600F052F939
:1043E0000346BB61BB69002B30D0BB695B6903F23C
:1043F0006C78BB691B695C1CBB69DD68BB699E6826
:10440000BB695B68BB60BB691A687A607B691846E8
:1044100000F058F9034605937A680492BB68039349
:1044200002960195009443460B4AF96838690DF0ED
:1044300051FB0346FB61FB69B3F1FF3F03DBFB6804
:10444000FA699A4202DB4FF0FF33FB61FB691846C1
:104450002037BD46BDE8F081889D05082DE9F04173
:1044600092B006AF78613961FA607B6918463CF01A
:1044700073FAC7E90801D7E908014FF47A724FF0DF
:1044800000031AF08DFB03460C46BB6107F11803CD
:1044900018463EF08AFDF861FB69002B02D14FF00F
:1044A000FF3335E0FB695B6903F26C78FB691B69DC
:1044B0005C1CFB69DD68FB699E68FB695B68BB602F
:1044C000FB691A687A60D7E908014FF47A724FF0F5
:1044D00000031AF065FB134605937A680492BB68E3
:1044E000039302960195009443460C4AF968386993
:1044F0000DF0F0FA0346FB62FB6AB3F1FF3F03DB0A
:10450000FB68FA6A9A4202DB4FF0FF33FB62FB6AF8
:1045100018463037BD46BDE8F08100BFAC9D0508A8
:1045200080B582B000AF786039607B68012B10D114
:104530003B684FF6FF7293420BD1084B1B68084A49
:104540001946084806F062FF074A0849054845F041
:10455000AFF800BF0837BD4680BD00BFB48B05086B
:10456000C32F04082C0A00200000002045B40008D6
:1045700080B500AF4FF6FF710120FFF7D1FF80BD7E
:1045800080B582B000AF184B1B68B3F1FF3F25D157
:10459000164B3B603B4618463EF0DDFD78607B687D
:1045A000DB68012B0EDC7B689A6813461B019B1AA3
:1045B0009B001A467B685B681344A3F5B4630A4A00
:1045C00013600BE07B689A6813461B019B1A9B00E3
:1045D0001A467B685B681344034A1360024B1B68EE
:1045E00018460837BD4680BD80000020805101007C
:1045F0002DE9F04F87B000AFF860B9607A60BB6812
:104600004FF0FF321A62B8683EF0B1FD78617B6905
:10461000B3F1FF3F01D100232FE0F8687B69194611
:104620004FEAE1720B4614464FEA441B4BEAD36B48
:104630004FEA431A53465C465B1A64EB02044FEAA6
:10464000840949EA93794FEA830843464C465B184C
:1046500044EB0204E60046EA5376DD002B4634467E
:10466000194622467B684FF000045B1844EB0204B5
:104670001A4623463EF089FB012318461C37BD46E7
:10468000BDE8F08F90B587B000AF78607B681846C2
:104690003CF062F9C7E90401D7E904014FF47A72EA
:1046A0004FF000031AF07CFA03460C46BB6007F19A
:1046B000080318463EF04FFDF860FB6818461C37AB
:1046C000BD4690BD90B583B000AF78607B6818465A
:1046D0003CF042F94FF47A724FF000031AF060FA9E
:1046E0001C46134618460C37BD4690BD80B400AF3B
:1046F00000231846BD465DF8047B704780B58CB03A
:1047000000AF786039603B68BB6007F10C0324227E
:104710000021184648F066F8BB681B7818464AF036
:10472000DDFE0346642B29D1BB680133BB60BB6847
:104730001B7818464AF0D2FE0346612B14D1BB68A1
:1047400001331B7818464AF0C9FE0346742B0BD17F
:10475000BB6802331B7818464AF0C0FE0346652B3F
:1047600002D1BB680333BB60BB681B78232B02D02C
:104770004FF0FF3350E0BB680133BB60BB681B7870
:10478000002B3FD0BB6807F108010A22184649F008
:10479000C9FE0346A3F26C733B62BB681B782D2BEA
:1047A0002DD1BB680133BB60BB6807F108010A2249
:1047B000184649F0B7FE0346013BFB61BB681B7816
:1047C0002D2B19D1BB680133BB60BB6807F1080111
:1047D0000A22184649F0A6FE0346BB617B6807F132
:1047E0000C0100221846FFF703FF034683F0010384
:1047F000DBB2002B0CD008E04FF0FF330CE04FF0A1
:10480000FF3309E04FF0FF3306E04FF0FF3303E0E2
:10481000BB681A463B68D31A18463037BD4680BD80
:1048200080B588B002AFF860B9607A604FF0FF33AE
:104830007B61FB681846FFF725FF03463B613B6938
:10484000002B02D14FF0FF331EE03B695B6903F29E
:104850006C713B691B6901333A69D268019200931C
:104860000B460B4A7968B8680DF034F903467B6152
:104870007B69B3F1FF3F03DB7B687A699A4202DB15
:104880004FF0FF337B617B6918461837BD4680BD0A
:10489000C09E050880B582B000AF786039607B6843
:1048A000012B10D13B684FF6FF7293420BD1084B9E
:1048B0001B68084A1946084806F0A8FD074A084937
:1048C000054844F0F5FE00BF0837BD4680BD00BF77
:1048D000B08B0508873104083C0A00200000002046
:1048E00045B4000880B500AF4FF6FF710120FFF717
:1048F000D1FF80BD80B400AF00231846BD465DF8EF
:10490000047B704780B582B000AF786039607B6807
:10491000012B10D13B684FF6FF7293420BD1084B2D
:104920001B68084A1946084806F070FD074A0849FE
:10493000054844F0BDFE00BF0837BD4680BD00BF3E
:10494000A48C05081B3304084C0A0020000000203A
:1049500045B4000880B500AF4FF6FF710120FFF7A6
:10496000D1FF80BD80B400AF00231846BD465DF87E
:10497000047B704780B588B000AF786039603B68D1
:10498000FB614FF00003BB612D4B7B612D4B3B6105
:1049900005222D49F86948F0F1FD0346002B02D1AC
:1049A000FB690533FB6107F10C031946F8690DF04B
:1049B000BCF8F0EE407AC7ED067A97ED060A3EF0B5
:1049C00076FDB0EE407ADFED217AB4EEE77AF1EED3
:1049D00010FA06D5D7ED067AF5EE407AF1EE10FA28
:1049E00017D197ED060A3EF062FDB0EE407ADFED9A
:1049F000187AB4EEE77AF1EE10FA06DDD7ED067A12
:104A0000F5EE407AF1EE10FA03D1FB68FA699A42AA
:104A100001D1012300E00023002B02D04FF0FF332F
:104A200009E07B6897ED060A18463EF068FDFB68D2
:104A30001A463B68D31A18462037BD4680BD00BFD2
:104A4000151D39019EC97F7F989F0508151D3901E5
:104A50009EC97F7F80B588B002AFF860B9607A6088
:104A6000FB6818463EF06AFDF0EE407AB7EEE77A52
:104A70008DED007B0B4A7968B8680DF02BF8034682
:104A80007B617B69B3F1FF3F03DB7B687A699A4204
:104A900002DB4FF0FF337B617B6918461837BD4658
:104AA00080BD00BFA09F050890B585B000AF7860BD
:104AB00039603B681B6810331B68386898470346A9
:104AC000FB81FB89023B132B67D801A252F823F02C
:104AD0007B4B00087B4B00087B4B00087B4B00089E
:104AE0009B4B00089B4B00089B4B00089B4B00080E
:104AF0009B4B00089B4B00089B4B00089B4B0008FE
:104B00009B4B00089B4B00089B4B00089B4B0008ED
:104B1000214B00082D4B0008474B0008614B000853
:104B20007B68396818463BF0BDFE46E038683EF0C9
:104B30002FFEB0EE407BF7EEC77BB0EE670A7868D9
:104B40003EF0DAFD39E07B681B6818331C683B686F
:104B500018463BF071FD034619467868A0472CE0E3
:104B60007B681B6818331C683B6818463BF064FD83
:104B7000034619467868A0471FE038683EF0B3FC4A
:104B8000034618CB1846214619F07CFF034600EE79
:104B9000103A78683EF0B0FD0FE038683EF0A3FCB4
:104BA000034618CB1846214619F064FF034600EE71
:104BB000103A78683EF0A0FD00BF00BF1437BD4634
:104BC00090BDB0B584B000AF786039603B681B68B9
:104BD00010331B68386898470346013B122B73D883
:104BE00001A252F823F000BF6B4C00086B4C000888
:104BF0006B4C00086B4C00086B4C0008C94C00085B
:104C0000C94C0008C94C0008C94C0008594C0008A0
:104C1000594C0008594C0008594C0008C94C000870
:104C2000C94C0008C94C0008C94C0008354C0008A4
:104C30003F4C0008796838683EF06FFD73E0786893
:104C40003EF07BFDF0EE407AB7EEE77AB0EE470B30
:104C500038683EF08CFD66E03B681B6808331B68D3
:104C60007A681146386898475DE078683EF065FDDF
:104C700087ED030AD7ED037AF5EEC07AF1EE10FA6C
:104C800007DDD7ED037AB6EE007A77EE877AC7EDC7
:104C9000037AD7ED037AF5EEC07AF1EE10FA07D574
:104CA000D7ED037AB6EE007A77EEC77AC7ED037ACE
:104CB00038683EF00CFC0546F86819F089FF034699
:104CC0000C4685E818002EE078683EF036FD87ED4A
:104CD000020AD7ED027AF5EEC07AF1EE10FA07DD9E
:104CE000D7ED027AB6EE007A77EE877AC7ED027AD0
:104CF000D7ED027AF5EEC07AF1EE10FA07D5D7EDCE
:104D0000027AB6EE007A77EEC77AC7ED027A386893
:104D10003EF0DDFB0546B86819F07EFF03460C4601
:104D200085E8180000BF00BF1037BD46B0BD80B594
:104D300082B000AF786039607B68012B10D13B688E
:104D40004FF6FF7293420BD1074B1B68074A194677
:104D5000074806F05BFB074A0749054844F0A8FCF2
:104D600000BF0837BD4680BDD88C050879350408DA
:104D70005C0A00200000002045B4000880B500AFA8
:104D80004FF6FF710120FFF7D2FF80BD80B400AF66
:104D900000231846BD465DF8047B704790B589B086
:104DA00000AF786039603B68FB614FF000034FF063
:104DB0000004C7E9043406221B49F86948F0DEFB09
:104DC0000346002B02D1FB690633FB6145F0A4FFCB
:104DD00002460023136007F10C031946F86949F0F5
:104DE00017FA87ED040B45F097FF03461B68002B6D
:104DF00003D1FB68FA699A4201D1012300E0002344
:104E0000002B02D04FF0FF3309E07B6897ED040BD5
:104E100018463EF083FBFB681A463B68D31A1846D7
:104E20002437BD4690BD00BF6CA0050880B588B092
:104E300002AFF860B9607A60FB6818463EF08DFBFF
:104E4000B0EE407B8DED007B0F230B4A7968B8688C
:104E50000CF040FE03467B617B69B3F1FF3F03DB4F
:104E60007B687A699A4202DB4FF0FF337B617B6992
:104E700018461837BD4680BD74A0050890B585B0AA
:104E800000AF786039603B681B6810331B68386876
:104E900098470346FB81FB89023B132B68D801A28C
:104EA00052F823F04F4F00084F4F00084F4F0008B3
:104EB0004F4F0008714F0008714F0008714F0008F4
:104EC000714F0008714F0008714F0008714F0008C2
:104ED000714F0008714F0008714F0008714F0008B2
:104EE000714F0008014F0008F54E00081B4F0008E5
:104EF000354F00087B68396818463BF0D3FC48E022
:104F000038683EF01AFCF0EE407AB7EEE77AB0EE81
:104F1000470B78683EF02BFC3BE07B681B6818333E
:104F20001C683B6818463BF0A1FB034619467868AD
:104F3000A0472EE07B681B6818331C683B68184646
:104F40003BF094FB034619467868A04721E0386897
:104F50003EF0C9FA034618CB1846214619F094FCD6
:104F600003460C4644EC103B78683EF000FC10E031
:104F700038683EF0B8FA034618CB1846214619F0B7
:104F80007BFC03460C4644EC103B78683EF0EFFB9C
:104F900000BF00BF1437BD4690BDB0B586B000AFAE
:104FA000786039603B681B6810331B683868984725
:104FB0000346013B122B74D801A252F823F000BF24
:104FC0004350000843500008435000084350000875
:104FD00043500008A3500008A3500008A350000845
:104FE000A35000083150000831500008315000082B
:104FF00031500008A3500008A3500008A350000837
:10500000A35000080D5000082750000878683EF0B3
:10501000BFFBB0EE407BF7EEC77BB0EE670A3868A7
:105020003EF06AFB6DE0796838683EF07FFC68E02E
:105030003B681B6808331B687A68114638689847D4
:105040005FE078683EF0A4FB87ED040B97ED047BEE
:10505000B5EEC07BF1EE10FA07DD97ED047BB6EEFE
:10506000006B37EE067B87ED047B97ED047BB5EE96
:10507000C07BF1EE10FA07D597ED047BB6EE006B1E
:1050800037EE467B87ED047B38683EF020FA054614
:10509000D7E9040119F0AEFD03460C4685E8180077
:1050A0002FE078683EF074FB87ED020B97ED027BF2
:1050B000B5EEC07BF1EE10FA07DD97ED027BB6EEA0
:1050C000006B37EE067B87ED027B97ED027BB5EE3A
:1050D000C07BF1EE10FA07D597ED027BB6EE006BC0
:1050E00037EE467B87ED027B38683EF0F0F90546E7
:1050F000D7E9020119F0B4FD03460C4685E8180013
:1051000000BF00BF1837BD46B0BD80B582B000AF4C
:10511000786039607B68012B10D13B684FF6FF72D5
:1051200093420BD1074B1B68074A1946074806F004
:105130006DF9074A0749054844F0BAFA00BF083735
:10514000BD4680BDA08C0508AF3704086C0A00205E
:105150000000002045B4000880B500AF4FF6FF7195
:105160000120FFF7D2FF80BD80B400AF00231846B6
:10517000BD465DF8047B704780B582B000AF7860B3
:105180007B6818463EF030FC034A7B681A607B68F7
:1051900018460837BD4680BD0CA1050880B584B00F
:1051A00000AFF8600B467A607B81FB6818463EF0E2
:1051B0001BFC0A4AFB681A607B897A681946F86802
:1051C00000F0A0F8FB6805E0FB6818463EF0EAFB3B
:1051D00044F002FF18461037BD4680BD0CA10508FB
:1051E000B0B586B000AF786039607B6818463EF095
:1051F000FBFB304A7B681A6038683EF079FC034656
:105200007B82B7F91230002B42D07C6808203AF03C
:10521000C3FF03461D467B8A194628463EF0BCFC68
:10522000294620463DF019FA38683EF091FD0546C2
:105230002B680C331C6878683EF072FD03461946F3
:105240002846A04778683EF03BFD0346FB6038687F
:105250003EF04EFD0346BB6000237B61B7F9122090
:105260007B699A4214DD7B691B01BA6813441B6891
:105270000C331B687A691201B96888187A691201BF
:10528000F9680A44114698477B6901337B61E5E779
:105290007B680AE0082128463AF08AFFFFE77B682E
:1052A00018463EF07FFB44F097FE18461837BD467F
:1052B000B0BD00BF0CA1050880B582B000AF78601A
:1052C000074A7B681A60786800F0BBF87B6818466C
:1052D0003EF068FB7B6818460837BD4680BD00BFBE
:1052E0000CA1050880B582B000AF78607868FFF740
:1052F000E3FF102178683AF05BFF7B6818460837B7
:10530000BD4680BDB0B588B000AFF8600B467A608E
:105310007B817B89002B46D0F86800F092F8FC680E
:1053200008203AF039FF03461D467B891946284676
:105330003EF032FC294620463DF08FF9F8683EF0F9
:10534000BFFC0346BB61F8683EF0EAFC03467B61A4
:105350007969786806F0AAF90346002B14BF012387
:105360000023DBB2002B14D00023FB617A89FB6998
:105370009A4218D97B691B680C331B68FA691201C1
:10538000B9690A44114678699847FB690133FB61A2
:10539000ECE7F86800F055F805E0082128463AF0F7
:1053A00007FF44F019FE00BF2037BD46B0BD90B5E1
:1053B00085B000AF786039603B681B6810331B68AC
:1053C0003868984703461A2B0CBF01230023DBB231
:1053D000002B32D038683EF08BFC0346FB607868C7
:1053E0003EF086FB03461C4638683EF081FB0346D0
:1053F0009C4204DA78683EF07BFB034603E03868A1
:105400003EF076FB03463B8100237B817A893B8912
:105410009A4212DA7B89194678683EF07EFB024692
:10542000136808331B68F968104698477B89013375
:105430007B81FB681033FB60E8E700BF1437BD4693
:1054400090BD90B583B000AF78607B6818463BF0A4
:10545000DBF80346002B14BF01230023DBB2002B33
:1054600011D078683EF099FC0446002C06D0204606
:105470003EF0C7FB082120463AF09AFE7B680021E7
:1054800018463DF0EAF800BF0C37BD4690BDB0B5F8
:105490008AB002AF786039604FF0FF33FB613B6840
:1054A0007B613B681B785B2B73D100233B6100233E
:1054B0007B8378683EF01CFB03463B837B691B784B
:1054C000002B3AD07B691B785D2B36D07B6901338A
:1054D0007B6107F11403184600F089F97B697C8B26
:1054E00007F10C00398B07F110020192009323465B
:1054F0000246786800F055F87B69FA6813441B7817
:10550000202B03D1FB680133FB60F5E7FB68002B20
:1055100013DD7B69FA6813441B782C2B05D07B695B
:10552000FA6813441B785D2B07D17B69FA68134432
:105530007B617B8B01337B83C0E77B691B785D2BB1
:105540001DD17B691A463B68D31A0133FB617A8B04
:105550003B8B9A4213DA7B8B194678683EF0DDFA72
:1055600005462B6808331C6878683EF0D9FB034673
:1055700019462846A0477B8B01337B83E7E73B69CD
:10558000002B06D03B691B6804331B683A69104640
:105590009847FB6901E044F01FFD18462037BD46DF
:1055A000B0BD80B584B000AFF8607A601A460B4693
:1055B0007B8113463B813A897B899A420FDA3B898A
:1055C0001946F8683EF0A9FA0246136818331B68BA
:1055D000B9691046984702467B681A601DE0FB696E
:1055E0001B68002B0CD1F8683EF09AFB024613684A
:1055F0000C331B680021104698470246FB691A606D
:10560000FB691B681B6818331B68FA691268B96963
:105610001046984702467B681A6000BF1037BD46A7
:1056200080BD80B58AB000AFF860B9607A604FF095
:10563000FF337B627B68002B66D0BB685B221A70ED
:10564000BB680133BB607B68013B7B6001237B62ED
:10565000F8683EF04DFA03467B83F8683EF048FB5D
:1056600003463B620023FB617A8BFB699A423BD97C
:105670003B6A1B681C331B687A68B968386A9847AC
:1056800003467B617B69B3F1FF3F02D14FF0FF33EB
:105690003BE07B697A68D31A7B607B69BA68134404
:1056A000BB607B68002B02D14FF0FF332DE07A6A9C
:1056B0007B6913447B627B8B013B1A46FB699A42F0
:1056C0000BD0BB682C221A70BB680133BB607B6AAD
:1056D00001337B627B68013B7B60FB690133FB61CB
:1056E0003B6A10333B62BFE77B68012B02D84FF067
:1056F000FF330AE0BB685D221A70BB6801330022E9
:105700001A707B6A01337B627B6A18462837BD4674
:1057100080BD90B587B000AF786003237B61786867
:105720003EF0E6F90346FB81FB89012B03DDFB8993
:10573000013B1A4600E000227B6913447B617868D4
:105740003EF0D6FA0346BB60BB68002B4AD07868AF
:105750003EF0FDF90346143B072B2FD801A252F867
:1057600023F000BF8557000885570008BD57000883
:10577000BD570008BD570008BD57000885570008F1
:105780008557000800233B61FA893B699A4228D972
:105790003B691B01BA6813441B6820331B683A69D4
:1057A0001201B9680A44104698470346013B7A69DA
:1057B00013447B613B6901333B61E5E7FC89786811
:1057C0003EF0C6FA0246136820331B68104698471D
:1057D0000346013B03FB04F37A6913447B6100BF7A
:1057E00000E000BF7B6918461C37BD4690BD80B401
:1057F00083B000AF78607B681B681B78202B05D1D5
:105800007B681B685A1C7B681A60F4E700BF0C3782
:10581000BD465DF8047B704780B582B000AF78600C
:1058200039607B68012B10D13B684FF6FF729342C1
:105830000BD1084B1B68084A1946084805F0E6FDDD
:10584000074A0849054843F033FF00BF0837BD4603
:1058500080BD00BF708B05080D3A04087C0A00204B
:105860000000002045B4000880B500AF4FF6FF717E
:105870000120FFF7D1FF80BD80B400AF00231846A0
:10588000BD465DF8047B704780B58EB000AFF86010
:10589000B9607A60002387F837307B683B63BB6868
:1058A000FB627B68002B07D1FB6800226749184622
:1058B000FDF7B2FC0123C4E07B6803F00103002B79
:1058C00001D00023BDE007F1100300221946B8689B
:1058D00000F03BFD0346BB61BB69002B01DA0023EE
:1058E000AFE0BB69022B19D13A69594B1B689A4248
:1058F00009D1012387F837303B6B023B3B63FB6ADE
:105900000233FB620AE03A69524B1B689A4205D1A6
:105910003B6B023B3B63FB6A0233FB62FB6ABB628D
:1059200000237B6200233B627A6A3B6B9A422ED251
:1059300097F8372007F110031946B86A00F005FD03
:105940000346BB61BB69002B05DBBA697B6A1A445D
:105950003B6B9A4201D9002373E0BB697A6A134416
:105960007B62BB69BA6A1344BB623B691A46002179
:10597000002000F03DFC0346BB61BB69002B01DA4F
:1059800000235EE0BB693A6A13443B62CCE73B6AA2
:105990004FF6FE72934201D9002352E0FB683A6A47
:1059A00092B211461846FDF7E4FCFB6818463AF03F
:1059B0002BFE0346002B0CBF01230023DBB2002B80
:1059C00001D000233DE0FB6818463AF035FEF8614F
:1059D000FA693B6A13447B61FB6ABB6200237B620A
:1059E0007A6A3B6B9A4221D297F8372007F110036D
:1059F0001946B86A00F0A9FC0346BB61BB697A6A24
:105A000013447B62BB69BA6A1344BB627A69FB695F
:105A1000D31A19463B691A46F86900F0E9FB0346B8
:105A2000BB61BB69FA691344FB61D9E7FB683A6A59
:105A300092B2114618463CF0F9FAFB6900221A703E
:105A4000012318463837BD4680BD00BFD0A10508E8
:105A500064A2050860A2050880B58CB000AFF860AC
:105A6000B9607A60FB6818463AF000FEF8620023DD
:105A7000BB6200237B62FB6818463AF011FE0346C6
:105A8000FB61BA6AFB699A4233D207F110031946E7
:105A9000F86A00F007FB0346BB61BB69002B05DB1E
:105AA000BA69BB6A1A44FB699A4202D94FF0FF33C4
:105AB0007CE0BB69BA6A1344BB62BB69FA6A1344EF
:105AC000FB623A693B4B1B689A42DAD03A69002381
:105AD0000021002000F0A2FC0346BB61BB69002B43
